{
  "_format": "hh3-artifact-1",
  "contractName": "TournamentScores",
  "sourceName": "contracts/TournamentScores.sol",
  "abi": [
    {
      "anonymous": false,
      "inputs": [
        {
          "indexed": false,
          "internalType": "string",
          "name": "matchId",
          "type": "string"
        },
        {
          "indexed": false,
          "internalType": "uint256",
          "name": "score1",
          "type": "uint256"
        },
        {
          "indexed": false,
          "internalType": "uint256",
          "name": "score2",
          "type": "uint256"
        },
        {
          "indexed": false,
          "internalType": "uint256",
          "name": "timestamp",
          "type": "uint256"
        }
      ],
      "name": "MatchSaved",
      "type": "event"
    },
    {
      "inputs": [
        {
          "internalType": "string",
          "name": "matchId",
          "type": "string"
        }
      ],
      "name": "getMatch",
      "outputs": [
        {
          "internalType": "uint256",
          "name": "score1",
          "type": "uint256"
        },
        {
          "internalType": "uint256",
          "name": "score2",
          "type": "uint256"
        },
        {
          "internalType": "uint256",
          "name": "timestamp",
          "type": "uint256"
        }
      ],
      "stateMutability": "view",
      "type": "function"
    },
    {
      "inputs": [
        {
          "internalType": "string",
          "name": "matchId",
          "type": "string"
        },
        {
          "internalType": "uint256",
          "name": "score1",
          "type": "uint256"
        },
        {
          "internalType": "uint256",
          "name": "score2",
          "type": "uint256"
        }
      ],
      "name": "saveMatch",
      "outputs": [],
      "stateMutability": "nonpayable",
      "type": "function"
    }
  ],
  "bytecode": "0x6080604052348015600e575f5ffd5b506103188061001c5f395ff3fe608060405234801561000f575f5ffd5b5060043610610034575f3560e01c806342ffbab9146100385780636f1279191461006a575b5f5ffd5b61004b610046366004610202565b61007f565b6040805193845260208401929092529082015260600160405180910390f35b61007d610078366004610241565b610127565b005b5f5f5f5f5f868660405161009492919061028e565b90815260408051918290036020908101832060608401835280548452600181015491840191909152600201549082018190529091505f0361010d5760405162461bcd60e51b815260206004820152600f60248201526e13585d18da081b9bdd08199bdd5b99608a1b604482015260640160405180910390fd5b805160208201516040909201519097919650945092505050565b6040518060600160405280838152602001828152602001428152505f858560405161015392919061028e565b9081526040805160209281900383018120845181559284015160018401559201516002909101557f44829350fcfec5454e274ac5fdf3fcc3d4ab6373cd7493aa708a019f08d96bd8906101af908690869086908690429061029d565b60405180910390a150505050565b5f5f83601f8401126101cd575f5ffd5b50813567ffffffffffffffff8111156101e4575f5ffd5b6020830191508360208285010111156101fb575f5ffd5b9250929050565b5f5f60208385031215610213575f5ffd5b823567ffffffffffffffff811115610229575f5ffd5b610235858286016101bd565b90969095509350505050565b5f5f5f5f60608587031215610254575f5ffd5b843567ffffffffffffffff81111561026a575f5ffd5b610276878288016101bd565b90989097506020870135966040013595509350505050565b818382375f9101908152919050565b60808152846080820152848660a08301375f60a086830101525f60a0601f19601f8801168301019050846020830152836040830152826060830152969550505050505056fea264697066735822122007039ffaa0a4c4dcd1463fcf165f091da30baffdcf0638eda4de0fc89778084064736f6c634300081c0033",
  "linkReferences": {},
  "deployedLinkReferences": {},
  "immutableReferences": {},
  "inputSourceName": "project/contracts/TournamentScores.sol",
  "buildInfoId": "solc-0_8_28-95389804e283d8ecae85b5f6b109aed4361501ee"
}